{
  "contractName": "WeatherBets",
  "abi": [
    {
      "constant": true,
      "inputs": [
        {
          "name": "",
          "type": "uint256"
        }
      ],
      "name": "bets",
      "outputs": [
        {
          "name": "taken",
          "type": "bool"
        },
        {
          "name": "settled",
          "type": "bool"
        },
        {
          "name": "overAddress",
          "type": "address"
        },
        {
          "name": "underAddress",
          "type": "address"
        },
        {
          "name": "endTime",
          "type": "uint256"
        },
        {
          "name": "overAmount",
          "type": "uint256"
        },
        {
          "name": "underAmount",
          "type": "uint256"
        },
        {
          "name": "locationId",
          "type": "uint8"
        },
        {
          "name": "temperature",
          "type": "int8"
        }
      ],
      "payable": false,
      "stateMutability": "view",
      "type": "function"
    },
    {
      "constant": true,
      "inputs": [],
      "name": "owner",
      "outputs": [
        {
          "name": "",
          "type": "address"
        }
      ],
      "payable": false,
      "stateMutability": "view",
      "type": "function"
    },
    {
      "constant": true,
      "inputs": [
        {
          "name": "",
          "type": "uint256"
        }
      ],
      "name": "locations",
      "outputs": [
        {
          "name": "",
          "type": "string"
        }
      ],
      "payable": false,
      "stateMutability": "view",
      "type": "function"
    },
    {
      "inputs": [],
      "payable": false,
      "stateMutability": "nonpayable",
      "type": "constructor"
    },
    {
      "payable": true,
      "stateMutability": "payable",
      "type": "fallback"
    },
    {
      "anonymous": false,
      "inputs": [
        {
          "indexed": false,
          "name": "maker",
          "type": "address"
        },
        {
          "indexed": false,
          "name": "betId",
          "type": "uint256"
        }
      ],
      "name": "NewBet",
      "type": "event"
    },
    {
      "anonymous": false,
      "inputs": [
        {
          "indexed": false,
          "name": "taker",
          "type": "address"
        },
        {
          "indexed": false,
          "name": "betId",
          "type": "uint256"
        }
      ],
      "name": "BetAccepted",
      "type": "event"
    },
    {
      "anonymous": false,
      "inputs": [
        {
          "indexed": false,
          "name": "maker",
          "type": "address"
        },
        {
          "indexed": false,
          "name": "betId",
          "type": "uint256"
        }
      ],
      "name": "BetCancelled",
      "type": "event"
    },
    {
      "anonymous": false,
      "inputs": [
        {
          "indexed": false,
          "name": "amount",
          "type": "uint256"
        },
        {
          "indexed": false,
          "name": "betId",
          "type": "uint256"
        }
      ],
      "name": "BetPayout",
      "type": "event"
    },
    {
      "constant": false,
      "inputs": [
        {
          "name": "locationId",
          "type": "uint8"
        },
        {
          "name": "over",
          "type": "bool"
        },
        {
          "name": "temperature",
          "type": "int8"
        },
        {
          "name": "endTime",
          "type": "uint256"
        },
        {
          "name": "odds",
          "type": "uint8"
        }
      ],
      "name": "placeBet",
      "outputs": [],
      "payable": true,
      "stateMutability": "payable",
      "type": "function"
    },
    {
      "constant": false,
      "inputs": [
        {
          "name": "betId",
          "type": "uint256"
        }
      ],
      "name": "acceptBet",
      "outputs": [],
      "payable": true,
      "stateMutability": "payable",
      "type": "function"
    },
    {
      "constant": false,
      "inputs": [
        {
          "name": "betId",
          "type": "uint256"
        }
      ],
      "name": "cancelBet",
      "outputs": [],
      "payable": false,
      "stateMutability": "nonpayable",
      "type": "function"
    },
    {
      "constant": false,
      "inputs": [
        {
          "name": "betId",
          "type": "uint256"
        }
      ],
      "name": "payoutBet",
      "outputs": [],
      "payable": false,
      "stateMutability": "nonpayable",
      "type": "function"
    }
  ],
  "bytecode": "0x608060405260405180604001604052806040518060400160405280600981526020017f56616e636f75766572000000000000000000000000000000000000000000000081525081526020016040518060400160405280600781526020017f546f726f6e746f00000000000000000000000000000000000000000000000000815250815250600190600262000095929190620000ea565b50348015620000a357600080fd5b50336000806101000a81548173ffffffffffffffffffffffffffffffffffffffff021916908373ffffffffffffffffffffffffffffffffffffffff1602179055506200027d565b8280548282559060005260206000209081019282156200013e579160200282015b828111156200013d5782518290805190602001906200012c92919062000151565b50916020019190600101906200010b565b5b5090506200014d9190620001d8565b5090565b828054600181600116156101000203166002900490600052602060002090601f016020900481019282601f106200019457805160ff1916838001178555620001c5565b82800160010185558215620001c5579182015b82811115620001c4578251825591602001919060010190620001a7565b5b509050620001d4919062000209565b5090565b6200020691905b80821115620002025760008181620001f8919062000231565b50600101620001df565b5090565b90565b6200022e91905b808211156200022a57600081600090555060010162000210565b5090565b90565b50805460018160011615610100020316600290046000825580601f106200025957506200027a565b601f01602090049060005260206000209081019062000279919062000209565b5b50565b611b69806200028d6000396000f3fe6080604052600436106100705760003560e01c80636c0c27e11161004e5780636c0c27e1146102045780638da5cb5b14610232578063b9e0db3514610289578063e3b282971461033d57610070565b806322af00fa14610075578063357401f514610168578063532a699f146101a3575b600080fd5b34801561008157600080fd5b506100ae6004803603602081101561009857600080fd5b8101908080359060200190929190505050610378565b604051808a151515158152602001891515151581526020018873ffffffffffffffffffffffffffffffffffffffff1673ffffffffffffffffffffffffffffffffffffffff1681526020018773ffffffffffffffffffffffffffffffffffffffff1673ffffffffffffffffffffffffffffffffffffffff1681526020018681526020018581526020018481526020018360ff1660ff1681526020018260000b60000b8152602001995050505050505050505060405180910390f35b34801561017457600080fd5b506101a16004803603602081101561018b57600080fd5b8101908080359060200190929190505050610447565b005b610202600480360360a08110156101b957600080fd5b81019080803560ff169060200190929190803515159060200190929190803560000b906020019092919080359060200190929190803560ff169060200190929190505050610806565b005b6102306004803603602081101561021a57600080fd5b8101908080359060200190929190505050610d91565b005b34801561023e57600080fd5b50610247611173565b604051808273ffffffffffffffffffffffffffffffffffffffff1673ffffffffffffffffffffffffffffffffffffffff16815260200191505060405180910390f35b34801561029557600080fd5b506102c2600480360360208110156102ac57600080fd5b8101908080359060200190929190505050611198565b6040518080602001828103825283818151815260200191508051906020019080838360005b838110156103025780820151818401526020810190506102e7565b50505050905090810190601f16801561032f5780820380516001836020036101000a031916815260200191505b509250505060405180910390f35b34801561034957600080fd5b506103766004803603602081101561036057600080fd5b8101908080359060200190929190505050611251565b005b6002818154811061038557fe5b90600052602060002090600602016000915090508060000160009054906101000a900460ff16908060000160019054906101000a900460ff16908060000160029054906101000a900473ffffffffffffffffffffffffffffffffffffffff16908060010160009054906101000a900473ffffffffffffffffffffffffffffffffffffffff16908060020154908060030154908060040154908060050160009054906101000a900460ff16908060050160019054906101000a900460000b905089565b8060028054905081106104c2576040517f08c379a000000000000000000000000000000000000000000000000000000000815260040180806020018281038252600e8152602001807f496e76616c69642062657420696400000000000000000000000000000000000081525060200191505060405180910390fd5b600281815481106104cf57fe5b906000526020600020906006020160000160019054906101000a900460ff1615610561576040517f08c379a000000000000000000000000000000000000000000000000000000000815260040180806020018281038252601c8152602001807f4265742068617320616c7265616479206265656e20736574746c65640000000081525060200191505060405180910390fd5b6002818154811061056e57fe5b906000526020600020906006020160000160009054906101000a900460ff1615610600576040517f08c379a000000000000000000000000000000000000000000000000000000000815260040180806020018281038252601a8152602001807f4265742068617320616c7265616479206265656e2074616b656e00000000000081525060200191505060405180910390fd5b426002828154811061060e57fe5b90600052602060002090600602016002015411610676576040517f08c379a0000000000000000000000000000000000000000000000000000000008152600401808060200182810382526024815260200180611b1a6024913960400191505060405180910390fd5b3373ffffffffffffffffffffffffffffffffffffffff166002838154811061069a57fe5b906000526020600020906006020160000160029054906101000a900473ffffffffffffffffffffffffffffffffffffffff1673ffffffffffffffffffffffffffffffffffffffff16148061075757503373ffffffffffffffffffffffffffffffffffffffff166002838154811061070d57fe5b906000526020600020906006020160010160009054906101000a900473ffffffffffffffffffffffffffffffffffffffff1673ffffffffffffffffffffffffffffffffffffffff16145b61076057600080fd5b60016002838154811061076f57fe5b906000526020600020906006020160000160016101000a81548160ff0219169083151502179055507f9e58f341ee6224856b97fa9bb85c38d5a631e05e8faf7bd5b756addcf00ac8433383604051808373ffffffffffffffffffffffffffffffffffffffff1673ffffffffffffffffffffffffffffffffffffffff1681526020018281526020019250505060405180910390a15050565b6000341161087c576040517f08c379a00000000000000000000000000000000000000000000000000000000081526004018080602001828103825260128152602001807f4e6f2062657420616d6f756e742073656e74000000000000000000000000000081525060200191505060405180910390fd5b4282116108f1576040517f08c379a000000000000000000000000000000000000000000000000000000000815260040180806020018281038252601e8152602001807f456e642074696d65206d75737420626520696e2074686520667574757265000081525060200191505060405180910390fd5b6000600115158515151415610ae85760026040518061012001604052806000151581526020016000151581526020013373ffffffffffffffffffffffffffffffffffffffff168152602001600073ffffffffffffffffffffffffffffffffffffffff168152602001858152602001348152602001348560ff1634020381526020018860ff1681526020018660000b8152509080600181540180825580915050906001820390600052602060002090600602016000909192909190915060008201518160000160006101000a81548160ff02191690831515021790555060208201518160000160016101000a81548160ff02191690831515021790555060408201518160000160026101000a81548173ffffffffffffffffffffffffffffffffffffffff021916908373ffffffffffffffffffffffffffffffffffffffff16021790555060608201518160010160006101000a81548173ffffffffffffffffffffffffffffffffffffffff021916908373ffffffffffffffffffffffffffffffffffffffff1602179055506080820151816002015560a0820151816003015560c0820151816004015560e08201518160050160006101000a81548160ff021916908360ff1602179055506101008201518160050160016101000a81548160ff021916908360000b60ff16021790555050509050610ccc565b6002604051806101200160405280600015158152602001600015158152602001600073ffffffffffffffffffffffffffffffffffffffff1681526020013373ffffffffffffffffffffffffffffffffffffffff168152602001858152602001348560ff1634020381526020013481526020018860ff1681526020018660000b8152509080600181540180825580915050906001820390600052602060002090600602016000909192909190915060008201518160000160006101000a81548160ff02191690831515021790555060208201518160000160016101000a81548160ff02191690831515021790555060408201518160000160026101000a81548173ffffffffffffffffffffffffffffffffffffffff021916908373ffffffffffffffffffffffffffffffffffffffff16021790555060608201518160010160006101000a81548173ffffffffffffffffffffffffffffffffffffffff021916908373ffffffffffffffffffffffffffffffffffffffff1602179055506080820151816002015560a0820151816003015560c0820151816004015560e08201518160050160006101000a81548160ff021916908360ff1602179055506101008201518160050160016101000a81548160ff021916908360000b60ff160217905550505090505b336003600083815260200190815260200160002060006101000a81548173ffffffffffffffffffffffffffffffffffffffff021916908373ffffffffffffffffffffffffffffffffffffffff1602179055507f15f528ef064d916438cdf46f2b272384a7e9459ab69445d805472aa3dfe1535e3382604051808373ffffffffffffffffffffffffffffffffffffffff1673ffffffffffffffffffffffffffffffffffffffff1681526020018281526020019250505060405180910390a1505050505050565b806002805490508110610e0c576040517f08c379a000000000000000000000000000000000000000000000000000000000815260040180806020018281038252600e8152602001807f496e76616c69642062657420696400000000000000000000000000000000000081525060200191505060405180910390fd5b60028181548110610e1957fe5b906000526020600020906006020160000160019054906101000a900460ff1615610eab576040517f08c379a000000000000000000000000000000000000000000000000000000000815260040180806020018281038252601c8152602001807f4265742068617320616c7265616479206265656e20736574746c65640000000081525060200191505060405180910390fd5b60028181548110610eb857fe5b906000526020600020906006020160000160009054906101000a900460ff1615610f4a576040517f08c379a000000000000000000000000000000000000000000000000000000000815260040180806020018281038252601a8152602001807f4265742068617320616c7265616479206265656e2074616b656e00000000000081525060200191505060405180910390fd5b4260028281548110610f5857fe5b90600052602060002090600602016002015411610fc0576040517f08c379a0000000000000000000000000000000000000000000000000000000008152600401808060200182810382526024815260200180611b1a6024913960400191505060405180910390fd5b600060028381548110610fcf57fe5b90600052602060002090600602019050600073ffffffffffffffffffffffffffffffffffffffff168160000160029054906101000a900473ffffffffffffffffffffffffffffffffffffffff1673ffffffffffffffffffffffffffffffffffffffff16141561109157806003015434101561104957600080fd5b338160000160026101000a81548173ffffffffffffffffffffffffffffffffffffffff021916908373ffffffffffffffffffffffffffffffffffffffff1602179055506110e6565b80600401543410156110a257600080fd5b338160010160006101000a81548173ffffffffffffffffffffffffffffffffffffffff021916908373ffffffffffffffffffffffffffffffffffffffff1602179055505b60018160000160006101000a81548160ff0219169083151502179055507f12edecf52e4dd24dc855afa5659718e124fcb652bd1ed8cff6f3878f382919923384604051808373ffffffffffffffffffffffffffffffffffffffff1673ffffffffffffffffffffffffffffffffffffffff1681526020018281526020019250505060405180910390a1505050565b6000809054906101000a900473ffffffffffffffffffffffffffffffffffffffff1681565b600181815481106111a557fe5b906000526020600020016000915090508054600181600116156101000203166002900480601f0160208091040260200160405190810160405280929190818152602001828054600181600116156101000203166002900480156112495780601f1061121e57610100808354040283529160200191611249565b820191906000526020600020905b81548152906001019060200180831161122c57829003601f168201915b505050505081565b806002805490508110801561128f57506002818154811061126e57fe5b906000526020600020906006020160000160019054906101000a900460ff16155b80156112c35750600281815481106112a357fe5b906000526020600020906006020160000160009054906101000a900460ff165b80156112ec5750600281815481106112d757fe5b90600052602060002090600602016002015442115b61135e576040517f08c379a00000000000000000000000000000000000000000000000000000000081526004018080602001828103825260188152602001807f4572726f723a2062657420686173206e6f7420656e646564000000000000000081525060200191505060405180910390fd5b60028054905081106113d8576040517f08c379a000000000000000000000000000000000000000000000000000000000815260040180806020018281038252600e8152602001807f496e76616c69642062657420696400000000000000000000000000000000000081525060200191505060405180910390fd5b42600282815481106113e657fe5b9060005260206000209060060201600201541161146b576040517f08c379a00000000000000000000000000000000000000000000000000000000081526004018080602001828103825260118152602001807f42657420686173206e6f7420656e64656400000000000000000000000000000081525060200191505060405180910390fd5b6002818154811061147857fe5b906000526020600020906006020160000160019054906101000a900460ff161561150a576040517f08c379a000000000000000000000000000000000000000000000000000000000815260040180806020018281038252601c8152602001807f4265742068617320616c7265616479206265656e20736574746c65640000000081525060200191505060405180910390fd5b6002818154811061151757fe5b906000526020600020906006020160000160009054906101000a900460ff16156115a9576040517f08c379a00000000000000000000000000000000000000000000000000000000081526004018080602001828103825260168152602001807f42657420686173206e6f74206265656e2074616b656e0000000000000000000081525060200191505060405180910390fd5b3373ffffffffffffffffffffffffffffffffffffffff16600283815481106115cd57fe5b906000526020600020906006020160000160029054906101000a900473ffffffffffffffffffffffffffffffffffffffff1673ffffffffffffffffffffffffffffffffffffffff16148061168a57503373ffffffffffffffffffffffffffffffffffffffff166002838154811061164057fe5b906000526020600020906006020160010160009054906101000a900473ffffffffffffffffffffffffffffffffffffffff1673ffffffffffffffffffffffffffffffffffffffff16145b61169357600080fd5b6000600283815481106116a257fe5b906000526020600020906006020190508060000160009054906101000a900460ff1661186c57600073ffffffffffffffffffffffffffffffffffffffff168160000160029054906101000a900473ffffffffffffffffffffffffffffffffffffffff1673ffffffffffffffffffffffffffffffffffffffff161415611795578060010160009054906101000a900473ffffffffffffffffffffffffffffffffffffffff1673ffffffffffffffffffffffffffffffffffffffff166108fc82600401549081150290604051600060405180830381858888f1935050505015801561178f573d6000803e3d6000fd5b50611805565b8060000160029054906101000a900473ffffffffffffffffffffffffffffffffffffffff1673ffffffffffffffffffffffffffffffffffffffff166108fc82600301549081150290604051600060405180830381858888f19350505050158015611803573d6000803e3d6000fd5b505b60018160000160016101000a81548160ff0219169083151502179055507f78de5b3301df7074acd6fa484e3a9b21896ac6b6f98c8b74a1f86afb13a0561e816004015482600301540184604051808381526020018281526020019250505060405180910390a15b600061188d8260050160009054906101000a900460ff168360020154611b0d565b90508160050160019054906101000a900460000b60000b8160000b1315611928578160000160029054906101000a900473ffffffffffffffffffffffffffffffffffffffff1673ffffffffffffffffffffffffffffffffffffffff166108fc83600301548460040154019081150290604051600060405180830381858888f19350505050158015611922573d6000803e3d6000fd5b50611aa1565b8160050160019054906101000a900460000b60000b8160000b12156119c1578160010160009054906101000a900473ffffffffffffffffffffffffffffffffffffffff1673ffffffffffffffffffffffffffffffffffffffff166108fc83600401548460030154019081150290604051600060405180830381858888f193505050501580156119bb573d6000803e3d6000fd5b50611aa0565b8160000160029054906101000a900473ffffffffffffffffffffffffffffffffffffffff1673ffffffffffffffffffffffffffffffffffffffff166108fc83600301549081150290604051600060405180830381858888f19350505050158015611a2f573d6000803e3d6000fd5b508160010160009054906101000a900473ffffffffffffffffffffffffffffffffffffffff1673ffffffffffffffffffffffffffffffffffffffff166108fc83600401549081150290604051600060405180830381858888f19350505050158015611a9e573d6000803e3d6000fd5b505b5b60018260000160016101000a81548160ff0219169083151502179055507f78de5b3301df7074acd6fa484e3a9b21896ac6b6f98c8b74a1f86afb13a0561e826004015483600301540185604051808381526020018281526020019250505060405180910390a150505050565b6000601490509291505056fe4265742068617320656e6465642c207061796f757420746f20636c61696d2066756e6473a165627a7a72305820373de9bbbf581081af7a4492c59e2cdc3e23b80f8cc2507c46d0bfb585db7d520029",
  "source": "pragma solidity ^0.5.8;\n\ncontract WeatherBets {\n   address public owner;\n   string[] public locations = ['Vancouver', 'Toronto'];\n   Bet[] public bets;\n   mapping (uint => address) betToAddress;\n\n   struct Bet {\n      bool taken;\n      bool settled;\n      address payable overAddress;\n      address payable underAddress;\n      uint256 endTime;\n      uint256 overAmount;\n      uint256 underAmount;\n      uint8 locationId;\n      int8 temperature;\n   }\n\n   event NewBet(address maker, uint256 betId);\n   event BetAccepted(address taker, uint256 betId);\n   event BetCancelled(address maker, uint256 betId);\n   event BetPayout(uint256 amount, uint256 betId);\n\n   modifier untakenBet(uint256 betId) {\n      require (betId < bets.length, 'Invalid bet id');\n      require(!bets[betId].settled, 'Bet has already been settled');\n      require(!bets[betId].taken, 'Bet has already been taken');\n      require(bets[betId].endTime > now, 'Bet has ended, payout to claim funds');\n      _;\n   }\n\n   modifier endedBet(uint256 betId) {\n      require(betId < bets.length && !bets[betId].settled && bets[betId].taken && now > bets[betId].endTime, 'Error: bet has not ended');\n      require (betId < bets.length, 'Invalid bet id');\n      require(bets[betId].endTime > now, 'Bet has not ended');\n      require(!bets[betId].settled, 'Bet has already been settled');\n      require(!bets[betId].taken, 'Bet has not been taken');\n      _;\n   }\n\n   constructor() public {\n      owner = msg.sender;\n   }\n\n   function() external payable {\n      revert();\n   }\n\n   function placeBet(uint8 locationId, bool over, int8 temperature, uint256 endTime, uint8 odds) external payable {\n      require(msg.value > 0, 'No bet amount sent');\n      require(endTime > now, 'End time must be in the future');\n      uint256 id;\n      if (over == true) {\n         id = bets.push(Bet(false, false, msg.sender, address(0), endTime, msg.value, msg.value * odds - msg.value, locationId, temperature));\n      } else {\n         id = bets.push(Bet(false, false, address(0), msg.sender, endTime, msg.value * odds - msg.value, msg.value, locationId, temperature));\n      }\n      betToAddress[id] = msg.sender;\n      emit NewBet(msg.sender, id);\n   }\n\n   function acceptBet(uint256 betId) external payable untakenBet(betId) {\n      Bet storage bet = bets[betId];\n      if (bet.overAddress == address(0)) {\n         require(msg.value >= bet.overAmount);\n         bet.overAddress = msg.sender;\n      } else {\n         require(msg.value >= bet.underAmount);\n         bet.underAddress = msg.sender;\n      }\n      bet.taken = true;\n      emit BetAccepted(msg.sender, betId);\n   }\n\n   function cancelBet(uint256 betId) external untakenBet(betId) {\n      require(bets[betId].overAddress == msg.sender || bets[betId].underAddress == msg.sender);\n      bets[betId].settled = true;\n      emit BetCancelled(msg.sender, betId);\n   }\n\n   function payoutBet(uint256 betId) public endedBet(betId) {\n      require(bets[betId].overAddress == msg.sender || bets[betId].underAddress == msg.sender);\n      Bet storage bet = bets[betId];\n      if (!bet.taken) {\n          if (bet.overAddress == address(0)) {\n              bet.underAddress.transfer(bet.underAmount);\n          } else {\n              bet.overAddress.transfer(bet.overAmount);\n          }\n          bet.settled = true;\n          emit BetPayout(bet.overAmount + bet.underAmount, betId);\n      }\n      int8 temperature = getTemperature(bet.locationId, bet.endTime);\n      if (temperature > bet.temperature) {\n         bet.overAddress.transfer(bet.underAmount + bet.overAmount);\n      } else if (temperature < bet.temperature) {\n         bet.underAddress.transfer(bet.overAmount + bet.underAmount);\n      } else {\n         bet.overAddress.transfer(bet.overAmount);\n         bet.underAddress.transfer(bet.underAmount);\n      }\n      bet.settled = true;\n      emit BetPayout(bet.overAmount + bet.underAmount, betId);\n   }\n\n   function getTemperature(uint8 locationId, uint256 time) private returns (int8) {\n      return 20;\n   }\n\n\n}\n",
  "sourcePath": "/home/christian/ethWaterloo/weatherbet/contracts/WeatherBets.sol",
  "compiler": {
    "name": "solc",
    "version": "0.5.8+commit.23d335f2.Emscripten.clang"
  },
  "schemaVersion": "3.0.16",
  "updatedAt": "2019-11-09T20:33:12.069Z",
  "devdoc": {
    "methods": {}
  },
  "userdoc": {
    "methods": {}
  }
}