{
  "contractName": "WeatherBets",
  "abi": [
    {
      "constant": true,
      "inputs": [
        {
          "name": "",
          "type": "uint256"
        }
      ],
      "name": "bets",
      "outputs": [
        {
          "name": "taken",
          "type": "bool"
        },
        {
          "name": "settled",
          "type": "bool"
        },
        {
          "name": "overAddress",
          "type": "address"
        },
        {
          "name": "underAddress",
          "type": "address"
        },
        {
          "name": "endTime",
          "type": "uint256"
        },
        {
          "name": "overAmount",
          "type": "uint256"
        },
        {
          "name": "underAmount",
          "type": "uint256"
        },
        {
          "name": "locationId",
          "type": "uint8"
        },
        {
          "name": "temperature",
          "type": "int8"
        }
      ],
      "payable": false,
      "stateMutability": "view",
      "type": "function"
    },
    {
      "constant": true,
      "inputs": [],
      "name": "owner",
      "outputs": [
        {
          "name": "",
          "type": "address"
        }
      ],
      "payable": false,
      "stateMutability": "view",
      "type": "function"
    },
    {
      "constant": true,
      "inputs": [],
      "name": "currentEndTime",
      "outputs": [
        {
          "name": "",
          "type": "uint256"
        }
      ],
      "payable": false,
      "stateMutability": "view",
      "type": "function"
    },
    {
      "constant": true,
      "inputs": [
        {
          "name": "",
          "type": "uint256"
        }
      ],
      "name": "locations",
      "outputs": [
        {
          "name": "",
          "type": "string"
        }
      ],
      "payable": false,
      "stateMutability": "view",
      "type": "function"
    },
    {
      "inputs": [],
      "payable": false,
      "stateMutability": "nonpayable",
      "type": "constructor"
    },
    {
      "payable": true,
      "stateMutability": "payable",
      "type": "fallback"
    },
    {
      "anonymous": false,
      "inputs": [
        {
          "indexed": false,
          "name": "maker",
          "type": "address"
        },
        {
          "indexed": false,
          "name": "betId",
          "type": "uint256"
        }
      ],
      "name": "NewBet",
      "type": "event"
    },
    {
      "anonymous": false,
      "inputs": [
        {
          "indexed": false,
          "name": "taker",
          "type": "address"
        },
        {
          "indexed": false,
          "name": "betId",
          "type": "uint256"
        }
      ],
      "name": "BetAccepted",
      "type": "event"
    },
    {
      "anonymous": false,
      "inputs": [
        {
          "indexed": false,
          "name": "maker",
          "type": "address"
        },
        {
          "indexed": false,
          "name": "betId",
          "type": "uint256"
        }
      ],
      "name": "BetCancelled",
      "type": "event"
    },
    {
      "anonymous": false,
      "inputs": [
        {
          "indexed": false,
          "name": "amount",
          "type": "uint256"
        },
        {
          "indexed": false,
          "name": "betId",
          "type": "uint256"
        }
      ],
      "name": "BetPayout",
      "type": "event"
    },
    {
      "anonymous": false,
      "inputs": [
        {
          "indexed": true,
          "name": "id",
          "type": "bytes32"
        }
      ],
      "name": "ChainlinkRequested",
      "type": "event"
    },
    {
      "anonymous": false,
      "inputs": [
        {
          "indexed": true,
          "name": "id",
          "type": "bytes32"
        }
      ],
      "name": "ChainlinkFulfilled",
      "type": "event"
    },
    {
      "anonymous": false,
      "inputs": [
        {
          "indexed": true,
          "name": "id",
          "type": "bytes32"
        }
      ],
      "name": "ChainlinkCancelled",
      "type": "event"
    },
    {
      "constant": false,
      "inputs": [
        {
          "name": "locationId",
          "type": "uint8"
        },
        {
          "name": "over",
          "type": "bool"
        },
        {
          "name": "temperature",
          "type": "int8"
        },
        {
          "name": "endTime",
          "type": "uint256"
        },
        {
          "name": "odds",
          "type": "uint8"
        }
      ],
      "name": "placeBet",
      "outputs": [],
      "payable": true,
      "stateMutability": "payable",
      "type": "function"
    },
    {
      "constant": false,
      "inputs": [
        {
          "name": "betId",
          "type": "uint256"
        }
      ],
      "name": "acceptBet",
      "outputs": [],
      "payable": true,
      "stateMutability": "payable",
      "type": "function"
    },
    {
      "constant": false,
      "inputs": [
        {
          "name": "betId",
          "type": "uint256"
        }
      ],
      "name": "cancelBet",
      "outputs": [
        {
          "name": "",
          "type": "uint256"
        }
      ],
      "payable": true,
      "stateMutability": "payable",
      "type": "function"
    },
    {
      "constant": false,
      "inputs": [
        {
          "name": "betId",
          "type": "uint256"
        }
      ],
      "name": "payoutBet",
      "outputs": [],
      "payable": true,
      "stateMutability": "payable",
      "type": "function"
    },
    {
      "constant": false,
      "inputs": [
        {
          "name": "_oracle",
          "type": "address"
        },
        {
          "name": "_jobId",
          "type": "bytes32"
        },
        {
          "name": "_payment",
          "type": "uint256"
        },
        {
          "name": "locationId",
          "type": "uint8"
        }
      ],
      "name": "requestTemperature",
      "outputs": [],
      "payable": false,
      "stateMutability": "nonpayable",
      "type": "function"
    },
    {
      "constant": false,
      "inputs": [
        {
          "name": "_requestId",
          "type": "bytes32"
        },
        {
          "name": "_temperature",
          "type": "int256"
        }
      ],
      "name": "fulfill",
      "outputs": [],
      "payable": false,
      "stateMutability": "nonpayable",
      "type": "function"
    },
    {
      "constant": false,
      "inputs": [],
      "name": "withdrawLink",
      "outputs": [],
      "payable": false,
      "stateMutability": "nonpayable",
      "type": "function"
    }
  ],
  "bytecode": "0x6080604052600160045560408051908101604052806040805190810160405280600981526020017f56616e636f75766572000000000000000000000000000000000000000000000081525081526020016040805190810160405280600781526020017f546f726f6e746f0000000000000000000000000000000000000000000000000081525081525060079060026200009a92919062000266565b5060408051908101604052806040805190810160405280601181526020017f34392e323832372c2d3132332e3132303700000000000000000000000000000081525081526020016040805190810160405280601081526020017f34332e363533322c2d37392e333833310000000000000000000000000000000081525081525060089060026200012c92919062000266565b503480156200013a57600080fd5b5033600660006101000a81548173ffffffffffffffffffffffffffffffffffffffff021916908373ffffffffffffffffffffffffffffffffffffffff160217905550620001aa73020fe562d797a42dcb3399062ae9546cd06f6328620001de640100000000026401000000009004565b620001d873c99b3d447826532722e41bc36e644ba3479e436562000222640100000000026401000000009004565b620003f9565b80600260006101000a81548173ffffffffffffffffffffffffffffffffffffffff021916908373ffffffffffffffffffffffffffffffffffffffff16021790555050565b80600360006101000a81548173ffffffffffffffffffffffffffffffffffffffff021916908373ffffffffffffffffffffffffffffffffffffffff16021790555050565b828054828255906000526020600020908101928215620002ba579160200282015b82811115620002b9578251829080519060200190620002a8929190620002cd565b509160200191906001019062000287565b5b509050620002c9919062000354565b5090565b828054600181600116156101000203166002900490600052602060002090601f016020900481019282601f106200031057805160ff191683800117855562000341565b8280016001018555821562000341579182015b828111156200034057825182559160200191906001019062000323565b5b50905062000350919062000385565b5090565b6200038291905b808211156200037e5760008181620003749190620003ad565b506001016200035b565b5090565b90565b620003aa91905b80821115620003a65760008160009055506001016200038c565b5090565b90565b50805460018160011615610100020316600290046000825580601f10620003d55750620003f6565b601f016020900490600052602060002090810190620003f5919062000385565b5b50565b612ed980620004096000396000f3006080604052600436106100af576000357c0100000000000000000000000000000000000000000000000000000000900463ffffffff16806322af00fa146100b4578063357401f514610199578063406d08ac146101cd578063532a699f146102355780636c0c27e1146102885780638da5cb5b146102a85780638dc654a2146102ff578063b36ccbaf14610316578063b9e0db3514610341578063bda71d04146103e7578063e3b2829714610422575b600080fd5b3480156100c057600080fd5b506100df60048036038101908080359060200190929190505050610442565b604051808a151515158152602001891515151581526020018873ffffffffffffffffffffffffffffffffffffffff1673ffffffffffffffffffffffffffffffffffffffff1681526020018773ffffffffffffffffffffffffffffffffffffffff1673ffffffffffffffffffffffffffffffffffffffff1681526020018681526020018581526020018481526020018360ff1660ff1681526020018260000b60000b8152602001995050505050505050505060405180910390f35b6101b760048036038101908080359060200190929190505050610513565b6040518082815260200191505060405180910390f35b3480156101d957600080fd5b50610233600480360381019080803573ffffffffffffffffffffffffffffffffffffffff169060200190929190803560001916906020019092919080359060200190929190803560ff169060200190929190505050610a28565b005b610286600480360381019080803560ff169060200190929190803515159060200190929190803560000b906020019092919080359060200190929190803560ff169060200190929190505050610ce8565b005b6102a660048036038101908080359060200190929190505050611226565b005b3480156102b457600080fd5b506102bd61165f565b604051808273ffffffffffffffffffffffffffffffffffffffff1673ffffffffffffffffffffffffffffffffffffffff16815260200191505060405180910390f35b34801561030b57600080fd5b50610314611685565b005b34801561032257600080fd5b5061032b611917565b6040518082815260200191505060405180910390f35b34801561034d57600080fd5b5061036c6004803603810190808035906020019092919050505061191d565b6040518080602001828103825283818151815260200191508051906020019080838360005b838110156103ac578082015181840152602081019050610391565b50505050905090810190601f1680156103d95780820380516001836020036101000a031916815260200191505b509250505060405180910390f35b3480156103f357600080fd5b506104206004803603810190808035600019169060200190929190803590602001909291905050506119d8565b005b61044060048036038101908080359060200190929190505050611bc3565b005b60098181548110151561045157fe5b90600052602060002090600602016000915090508060000160009054906101000a900460ff16908060000160019054906101000a900460ff16908060000160029054906101000a900473ffffffffffffffffffffffffffffffffffffffff16908060010160009054906101000a900473ffffffffffffffffffffffffffffffffffffffff16908060020154908060030154908060040154908060050160009054906101000a900460ff16908060050160019054906101000a900460000b905089565b6000808260098054905081101515610593576040517f08c379a000000000000000000000000000000000000000000000000000000000815260040180806020018281038252600e8152602001807f496e76616c69642062657420696400000000000000000000000000000000000081525060200191505060405180910390fd5b6009818154811015156105a257fe5b906000526020600020906006020160000160019054906101000a900460ff16151515610636576040517f08c379a000000000000000000000000000000000000000000000000000000000815260040180806020018281038252601c8152602001807f4265742068617320616c7265616479206265656e20736574746c65640000000081525060200191505060405180910390fd5b60098181548110151561064557fe5b906000526020600020906006020160000160009054906101000a900460ff161515156106d9576040517f08c379a000000000000000000000000000000000000000000000000000000000815260040180806020018281038252601a8152602001807f4265742068617320616c7265616479206265656e2074616b656e00000000000081525060200191505060405180910390fd5b426009828154811015156106e957fe5b906000526020600020906006020160020154111515610796576040517f08c379a00000000000000000000000000000000000000000000000000000000081526004018080602001828103825260248152602001807f4265742068617320656e6465642c207061796f757420746f20636c61696d206681526020017f756e64730000000000000000000000000000000000000000000000000000000081525060400191505060405180910390fd5b3373ffffffffffffffffffffffffffffffffffffffff166009858154811015156107bc57fe5b906000526020600020906006020160000160029054906101000a900473ffffffffffffffffffffffffffffffffffffffff1673ffffffffffffffffffffffffffffffffffffffff16148061087b57503373ffffffffffffffffffffffffffffffffffffffff1660098581548110151561083157fe5b906000526020600020906006020160010160009054906101000a900473ffffffffffffffffffffffffffffffffffffffff1673ffffffffffffffffffffffffffffffffffffffff16145b151561088657600080fd5b60098481548110151561089557fe5b906000526020600020906006020191503373ffffffffffffffffffffffffffffffffffffffff168260000160029054906101000a900473ffffffffffffffffffffffffffffffffffffffff1673ffffffffffffffffffffffffffffffffffffffff16141561094d573373ffffffffffffffffffffffffffffffffffffffff166108fc83600301549081150290604051600060405180830381858888f19350505050158015610947573d6000803e3d6000fd5b50610999565b3373ffffffffffffffffffffffffffffffffffffffff166108fc83600401549081150290604051600060405180830381858888f19350505050158015610997573d6000803e3d6000fd5b505b60018260000160016101000a81548160ff0219169083151502179055507f9e58f341ee6224856b97fa9bb85c38d5a631e05e8faf7bd5b756addcf00ac8433385604051808373ffffffffffffffffffffffffffffffffffffffff1673ffffffffffffffffffffffffffffffffffffffff1681526020018281526020019250505060405180910390a15050919050565b610a30612e0b565b600c5442111515610aa9576040517f08c379a00000000000000000000000000000000000000000000000000000000081526004018080602001828103825260208152602001807f42657474696e6720706572696f6420686173206e6f7420656e6465642079657481525060200191505060405180910390fd5b610ad7843063bda71d047c01000000000000000000000000000000000000000000000000000000000261231d565b9050610c566040805190810160405280600381526020017f676574000000000000000000000000000000000000000000000000000000000081525060088460ff16815481101515610b2457fe5b90600052602060002001600c5460405160200180807f68747470733a2f2f6170692e6461726b736b792e6e65742f666f72656361737481526020017f2f6137616630323963663133336635363933353666616662623034633263343381526020017f382f00000000000000000000000000000000000000000000000000000000000081525060420183805460018160011615610100020316600290048015610c035780601f10610be1576101008083540402835291820191610c03565b820191906000526020600020905b815481529060010190602001808311610bef575b5050807f2c00000000000000000000000000000000000000000000000000000000000000815250600101828152602001925050506040516020818303038152906040528361234e9092919063ffffffff16565b610cd56040805190810160405280600481526020017f70617468000000000000000000000000000000000000000000000000000000008152506040805190810160405280601381526020017f63757272656e742e74656d7065726174757265000000000000000000000000008152508361234e9092919063ffffffff16565b610ce0858285612381565b505050505050565b60008034111515610d61576040517f08c379a00000000000000000000000000000000000000000000000000000000081526004018080602001828103825260128152602001807f4e6f2062657420616d6f756e742073656e74000000000000000000000000000081525060200191505060405180910390fd5b4283111515610dd8576040517f08c379a000000000000000000000000000000000000000000000000000000000815260040180806020018281038252601e8152602001807f456e642074696d65206d75737420626520696e2074686520667574757265000081525060200191505060405180910390fd5b600115158515151415610fce576009610120604051908101604052806000151581526020016000151581526020013373ffffffffffffffffffffffffffffffffffffffff168152602001600073ffffffffffffffffffffffffffffffffffffffff168152602001858152602001348152602001348560ff1634020381526020018860ff1681526020018660000b8152509080600181540180825580915050906001820390600052602060002090600602016000909192909190915060008201518160000160006101000a81548160ff02191690831515021790555060208201518160000160016101000a81548160ff02191690831515021790555060408201518160000160026101000a81548173ffffffffffffffffffffffffffffffffffffffff021916908373ffffffffffffffffffffffffffffffffffffffff16021790555060608201518160010160006101000a81548173ffffffffffffffffffffffffffffffffffffffff021916908373ffffffffffffffffffffffffffffffffffffffff1602179055506080820151816002015560a0820151816003015560c0820151816004015560e08201518160050160006101000a81548160ff021916908360ff1602179055506101008201518160050160016101000a81548160ff021916908360000b60ff160217905550505090506111b3565b600961012060405190810160405280600015158152602001600015158152602001600073ffffffffffffffffffffffffffffffffffffffff1681526020013373ffffffffffffffffffffffffffffffffffffffff168152602001858152602001348560ff1634020381526020013481526020018860ff1681526020018660000b8152509080600181540180825580915050906001820390600052602060002090600602016000909192909190915060008201518160000160006101000a81548160ff02191690831515021790555060208201518160000160016101000a81548160ff02191690831515021790555060408201518160000160026101000a81548173ffffffffffffffffffffffffffffffffffffffff021916908373ffffffffffffffffffffffffffffffffffffffff16021790555060608201518160010160006101000a81548173ffffffffffffffffffffffffffffffffffffffff021916908373ffffffffffffffffffffffffffffffffffffffff1602179055506080820151816002015560a0820151816003015560c0820151816004015560e08201518160050160006101000a81548160ff021916908360ff1602179055506101008201518160050160016101000a81548160ff021916908360000b60ff160217905550505090505b7f15f528ef064d916438cdf46f2b272384a7e9459ab69445d805472aa3dfe1535e3382604051808373ffffffffffffffffffffffffffffffffffffffff1673ffffffffffffffffffffffffffffffffffffffff1681526020018281526020019250505060405180910390a1505050505050565b600081600980549050811015156112a5576040517f08c379a000000000000000000000000000000000000000000000000000000000815260040180806020018281038252600e8152602001807f496e76616c69642062657420696400000000000000000000000000000000000081525060200191505060405180910390fd5b6009818154811015156112b457fe5b906000526020600020906006020160000160019054906101000a900460ff16151515611348576040517f08c379a000000000000000000000000000000000000000000000000000000000815260040180806020018281038252601c8152602001807f4265742068617320616c7265616479206265656e20736574746c65640000000081525060200191505060405180910390fd5b60098181548110151561135757fe5b906000526020600020906006020160000160009054906101000a900460ff161515156113eb576040517f08c379a000000000000000000000000000000000000000000000000000000000815260040180806020018281038252601a8152602001807f4265742068617320616c7265616479206265656e2074616b656e00000000000081525060200191505060405180910390fd5b426009828154811015156113fb57fe5b9060005260206000209060060201600201541115156114a8576040517f08c379a00000000000000000000000000000000000000000000000000000000081526004018080602001828103825260248152602001807f4265742068617320656e6465642c207061796f757420746f20636c61696d206681526020017f756e64730000000000000000000000000000000000000000000000000000000081525060400191505060405180910390fd5b6009838154811015156114b757fe5b90600052602060002090600602019150600073ffffffffffffffffffffffffffffffffffffffff168260000160029054906101000a900473ffffffffffffffffffffffffffffffffffffffff1673ffffffffffffffffffffffffffffffffffffffff16141561157b578160030154341015151561153357600080fd5b338260000160026101000a81548173ffffffffffffffffffffffffffffffffffffffff021916908373ffffffffffffffffffffffffffffffffffffffff1602179055506115d2565b8160040154341015151561158e57600080fd5b338260010160006101000a81548173ffffffffffffffffffffffffffffffffffffffff021916908373ffffffffffffffffffffffffffffffffffffffff1602179055505b60018260000160006101000a81548160ff0219169083151502179055507f12edecf52e4dd24dc855afa5659718e124fcb652bd1ed8cff6f3878f382919923384604051808373ffffffffffffffffffffffffffffffffffffffff1673ffffffffffffffffffffffffffffffffffffffff1681526020018281526020019250505060405180910390a1505050565b600660009054906101000a900473ffffffffffffffffffffffffffffffffffffffff1681565b6000600660009054906101000a900473ffffffffffffffffffffffffffffffffffffffff1673ffffffffffffffffffffffffffffffffffffffff163373ffffffffffffffffffffffffffffffffffffffff161415156116e357600080fd5b6116eb61270d565b90508073ffffffffffffffffffffffffffffffffffffffff1663a9059cbb338373ffffffffffffffffffffffffffffffffffffffff166370a08231306040518263ffffffff167c0100000000000000000000000000000000000000000000000000000000028152600401808273ffffffffffffffffffffffffffffffffffffffff1673ffffffffffffffffffffffffffffffffffffffff168152602001915050602060405180830381600087803b1580156117a557600080fd5b505af11580156117b9573d6000803e3d6000fd5b505050506040513d60208110156117cf57600080fd5b81019080805190602001909291905050506040518363ffffffff167c0100000000000000000000000000000000000000000000000000000000028152600401808373ffffffffffffffffffffffffffffffffffffffff1673ffffffffffffffffffffffffffffffffffffffff16815260200182815260200192505050602060405180830381600087803b15801561186557600080fd5b505af1158015611879573d6000803e3d6000fd5b505050506040513d602081101561188f57600080fd5b81019080805190602001909291905050501515611914576040517f08c379a00000000000000000000000000000000000000000000000000000000081526004018080602001828103825260128152602001807f556e61626c6520746f207472616e73666572000000000000000000000000000081525060200191505060405180910390fd5b50565b600c5481565b60078181548110151561192c57fe5b906000526020600020016000915090508054600181600116156101000203166002900480601f0160208091040260200160405190810160405280929190818152602001828054600181600116156101000203166002900480156119d05780601f106119a5576101008083540402835291602001916119d0565b820191906000526020600020905b8154815290600101906020018083116119b357829003601f168201915b505050505081565b8160056000826000191660001916815260200190815260200160002060009054906101000a900473ffffffffffffffffffffffffffffffffffffffff1673ffffffffffffffffffffffffffffffffffffffff163373ffffffffffffffffffffffffffffffffffffffff16141515611add576040517f08c379a00000000000000000000000000000000000000000000000000000000081526004018080602001828103825260288152602001807f536f75726365206d75737420626520746865206f7261636c65206f662074686581526020017f207265717565737400000000000000000000000000000000000000000000000081525060400191505060405180910390fd5b60056000826000191660001916815260200190815260200160002060006101000a81549073ffffffffffffffffffffffffffffffffffffffff021916905580600019167f7cc135e0cebb02c3480ae5d74d377283180a2601f8f644edf7987b009316c63a60405160405180910390a281600a6000600c54815260200190815260200160002060006101000a81548160ff021916908360000b60ff1602179055506001600b6000600c54815260200190815260200160002060006101000a81548160ff0219169083151502179055506203f480600c60008282540192505081905550505050565b60008060008360098054905081101515611c45576040517f08c379a000000000000000000000000000000000000000000000000000000000815260040180806020018281038252600e8152602001807f496e76616c69642062657420696400000000000000000000000000000000000081525060200191505060405180910390fd5b42600982815481101515611c5557fe5b906000526020600020906006020160020154101515611cdc576040517f08c379a00000000000000000000000000000000000000000000000000000000081526004018080602001828103825260118152602001807f42657420686173206e6f7420656e64656400000000000000000000000000000081525060200191505060405180910390fd5b600981815481101515611ceb57fe5b906000526020600020906006020160000160019054906101000a900460ff16151515611d7f576040517f08c379a000000000000000000000000000000000000000000000000000000000815260040180806020018281038252601c8152602001807f4265742068617320616c7265616479206265656e20736574746c65640000000081525060200191505060405180910390fd5b3373ffffffffffffffffffffffffffffffffffffffff16600986815481101515611da557fe5b906000526020600020906006020160000160029054906101000a900473ffffffffffffffffffffffffffffffffffffffff1673ffffffffffffffffffffffffffffffffffffffff161480611e6457503373ffffffffffffffffffffffffffffffffffffffff16600986815481101515611e1a57fe5b906000526020600020906006020160010160009054906101000a900473ffffffffffffffffffffffffffffffffffffffff1673ffffffffffffffffffffffffffffffffffffffff16145b1515611e6f57600080fd5b600985815481101515611e7e57fe5b906000526020600020906006020193508360000160009054906101000a900460ff161515611fba573373ffffffffffffffffffffffffffffffffffffffff168460000160029054906101000a900473ffffffffffffffffffffffffffffffffffffffff1673ffffffffffffffffffffffffffffffffffffffff161415611f0a5783600301549250611f12565b836004015492505b60018460000160016101000a81548160ff0219169083151502179055503373ffffffffffffffffffffffffffffffffffffffff166108fc849081150290604051600060405180830381858888f19350505050158015611f75573d6000803e3d6000fd5b507f78de5b3301df7074acd6fa484e3a9b21896ac6b6f98c8b74a1f86afb13a0561e8386604051808381526020018281526020019250505060405180910390a1612316565b600b60008560020154815260200190815260200160002060009054906101000a900460ff161515612079576040517f08c379a00000000000000000000000000000000000000000000000000000000081526004018080602001828103825260228152602001807f54656d70657261747572652064617461206e6f742079657420636f6e6669726d81526020017f656400000000000000000000000000000000000000000000000000000000000081525060400191505060405180910390fd5b600a60008560020154815260200190815260200160002060009054906101000a900460000b60000b91508360050160019054906101000a900460000b60000b821315612139578360000160029054906101000a900473ffffffffffffffffffffffffffffffffffffffff1673ffffffffffffffffffffffffffffffffffffffff166108fc85600301548660040154019081150290604051600060405180830381858888f19350505050158015612133573d6000803e3d6000fd5b506122af565b8360050160019054906101000a900460000b60000b8212156121cf578360010160009054906101000a900473ffffffffffffffffffffffffffffffffffffffff1673ffffffffffffffffffffffffffffffffffffffff166108fc85600401548660030154019081150290604051600060405180830381858888f193505050501580156121c9573d6000803e3d6000fd5b506122ae565b8360000160029054906101000a900473ffffffffffffffffffffffffffffffffffffffff1673ffffffffffffffffffffffffffffffffffffffff166108fc85600301549081150290604051600060405180830381858888f1935050505015801561223d573d6000803e3d6000fd5b508360010160009054906101000a900473ffffffffffffffffffffffffffffffffffffffff1673ffffffffffffffffffffffffffffffffffffffff166108fc85600401549081150290604051600060405180830381858888f193505050501580156122ac573d6000803e3d6000fd5b505b5b60018460000160016101000a81548160ff0219169083151502179055507f78de5b3301df7074acd6fa484e3a9b21896ac6b6f98c8b74a1f86afb13a0561e846004015485600301540186604051808381526020018281526020019250505060405180910390a15b5050505050565b612325612e0b565b61232d612e0b565b61234485858584612737909392919063ffffffff16565b9150509392505050565b6123658284608001516127f190919063ffffffff16565b61237c8184608001516127f190919063ffffffff16565b505050565b600030600454604051602001808373ffffffffffffffffffffffffffffffffffffffff1673ffffffffffffffffffffffffffffffffffffffff166c01000000000000000000000000028152601401828152602001925050506040516020818303038152906040526040518082805190602001908083835b60208310151561241d57805182526020820191506020810190506020830392506123f8565b6001836020036101000a038019825116818451168082178552505050505050905001915050604051809103902090506004548360600181815250508360056000836000191660001916815260200190815260200160002060006101000a81548173ffffffffffffffffffffffffffffffffffffffff021916908373ffffffffffffffffffffffffffffffffffffffff16021790555080600019167fb5e6e01e79f91267dc17b4e6314d5d4d03593d2ceee0fbb452b750bd70ea5af960405160405180910390a2600260009054906101000a900473ffffffffffffffffffffffffffffffffffffffff1673ffffffffffffffffffffffffffffffffffffffff16634000aea0858461252c87612816565b6040518463ffffffff167c0100000000000000000000000000000000000000000000000000000000028152600401808473ffffffffffffffffffffffffffffffffffffffff1673ffffffffffffffffffffffffffffffffffffffff16815260200183815260200180602001828103825283818151815260200191508051906020019080838360005b838110156125cf5780820151818401526020810190506125b4565b50505050905090810190601f1680156125fc5780820380516001836020036101000a031916815260200191505b50945050505050602060405180830381600087803b15801561261d57600080fd5b505af1158015612631573d6000803e3d6000fd5b505050506040513d602081101561264757600080fd5b810190808051906020019092919050505015156126f2576040517f08c379a00000000000000000000000000000000000000000000000000000000081526004018080602001828103825260238152602001807f756e61626c6520746f207472616e73666572416e6443616c6c20746f206f726181526020017f636c65000000000000000000000000000000000000000000000000000000000081525060400191505060405180910390fd5b60016004600082825401925050819055508090509392505050565b6000600260009054906101000a900473ffffffffffffffffffffffffffffffffffffffff16905090565b61273f612e0b565b61274f8560800151610100612a41565b50838560000190600019169081600019168152505082856020019073ffffffffffffffffffffffffffffffffffffffff16908173ffffffffffffffffffffffffffffffffffffffff16815250508185604001907bffffffffffffffffffffffffffffffffffffffffffffffffffffffff191690817bffffffffffffffffffffffffffffffffffffffffffffffffffffffff191681525050849050949350505050565b6127fe8260038351612a9b565b6128118183612bf990919063ffffffff16565b505050565b6060600360009054906101000a900473ffffffffffffffffffffffffffffffffffffffff1673ffffffffffffffffffffffffffffffffffffffff16634042994690507c01000000000000000000000000000000000000000000000000000000000260008084600001518560200151866040015187606001516001896080015160000151604051602401808973ffffffffffffffffffffffffffffffffffffffff1673ffffffffffffffffffffffffffffffffffffffff16815260200188815260200187600019166000191681526020018673ffffffffffffffffffffffffffffffffffffffff1673ffffffffffffffffffffffffffffffffffffffff168152602001857bffffffffffffffffffffffffffffffffffffffffffffffffffffffff19167bffffffffffffffffffffffffffffffffffffffffffffffffffffffff1916815260200184815260200183815260200180602001828103825283818151815260200191508051906020019080838360005b838110156129a4578082015181840152602081019050612989565b50505050905090810190601f1680156129d15780820380516001836020036101000a031916815260200191505b509950505050505050505050604051602081830303815290604052907bffffffffffffffffffffffffffffffffffffffffffffffffffffffff19166020820180517bffffffffffffffffffffffffffffffffffffffffffffffffffffffff83818316178352505050509050919050565b612a49612e79565b6000602083811515612a5757fe5b06141515612a7457602082811515612a6b57fe5b06602003820191505b81836020018181525050604051808452600081528281016020016040525082905092915050565b601781111515612acd57612ac78160058460ff169060020a0260ff161784612c1b90919063ffffffff16565b50612bf4565b60ff81111515612b1457612af7601860058460ff169060020a021784612c1b90919063ffffffff16565b50612b0e81600185612c3b9092919063ffffffff16565b50612bf3565b61ffff81111515612b5c57612b3f601960058460ff169060020a021784612c1b90919063ffffffff16565b50612b5681600285612c3b9092919063ffffffff16565b50612bf2565b63ffffffff81111515612ba657612b89601a60058460ff169060020a021784612c1b90919063ffffffff16565b50612ba081600485612c3b9092919063ffffffff16565b50612bf1565b67ffffffffffffffff81111515612bf057612bd7601b60058460ff169060020a021784612c1b90919063ffffffff16565b50612bee81600885612c3b9092919063ffffffff16565b505b5b5b5b5b505050565b612c01612e79565b612c1383846000015151848551612c5d565b905092915050565b612c23612e79565b612c338384600001515184612d1a565b905092915050565b612c43612e79565b612c54848560000151518585612d6a565b90509392505050565b612c65612e79565b600080600085518511151515612c7a57600080fd5b87602001518588011115612ca557612ca4886002612c9e8b602001518b8a01612dcb565b02612de7565b5b875180518860208301019450808988011115612cc15788870182525b60208801935050505b602085101515612cef5781518352602083019250602082019150602085039450612cca565b6001856020036101000a03905080198251168184511681811785525050879350505050949350505050565b612d22612e79565b836020015183101515612d4157612d40846002866020015102612de7565b5b8351805160208583010184815381861415612d5d576001820183525b5050508390509392505050565b612d72612e79565b600085602001518584011115612d9257612d9186600287860102612de7565b5b6001836101000a0390508551838682010185831982511617815281518588011115612dbd5784870182525b505085915050949350505050565b600081831115612ddd57829050612de1565b8190505b92915050565b606082600001519050612dfa8383612a41565b50612e058382612bf9565b50505050565b60c06040519081016040528060008019168152602001600073ffffffffffffffffffffffffffffffffffffffff16815260200160007bffffffffffffffffffffffffffffffffffffffffffffffffffffffff1916815260200160008152602001612e73612e93565b81525090565b604080519081016040528060608152602001600081525090565b6040805190810160405280606081526020016000815250905600a165627a7a723058207411afe5263ccd78757045769945a035ac60f52e5a5bcf11db5a31c1038701800029",
  "source": "pragma solidity ^0.4.24;\n\nimport \"chainlink/contracts/ChainlinkClient.sol\";\n\ncontract WeatherBets is ChainlinkClient {\n   address public owner;\n   string[] public locations = ['Vancouver', 'Toronto'];\n   string[] private coords = ['49.2827,-123.1207', '43.6532,-79.3831'];\n   Bet[] public bets;\n   mapping (uint => int8) timeToTemp;\n   mapping (uint => bool) timeToTempFetched;\n   uint public currentEndTime;\n\n   struct Bet {\n      bool taken;\n      bool settled;\n      address overAddress;\n      address underAddress;\n      uint256 endTime;\n      uint256 overAmount;\n      uint256 underAmount;\n      uint8 locationId;\n      int8 temperature;\n   }\n\n   event NewBet(address maker, uint256 betId);\n   event BetAccepted(address taker, uint256 betId);\n   event BetCancelled(address maker, uint256 betId);\n   event BetPayout(uint256 amount, uint256 betId);\n\n   modifier untakenBet(uint256 betId) {\n      require (betId < bets.length, 'Invalid bet id');\n      require(!bets[betId].settled, 'Bet has already been settled');\n      require(!bets[betId].taken, 'Bet has already been taken');\n      require(bets[betId].endTime > now, 'Bet has ended, payout to claim funds');\n      _;\n   }\n\n   modifier endedBet(uint256 betId) {\n      require (betId < bets.length, 'Invalid bet id');\n      require(bets[betId].endTime < now, 'Bet has not ended');\n      require(!bets[betId].settled, 'Bet has already been settled');\n      _;\n   }\n\n   modifier onlyOwner() {\n     require(msg.sender == owner);\n     _;\n   }\n\n   constructor() {\n      owner = msg.sender;\n      setChainlinkToken(0x20fE562d797A42Dcb3399062AE9546cd06f6328);\n      setChainlinkOracle(0xc99B3D447826532722E41bc36e644ba3479E4365);\n  }\n\n   function() external payable {\n      revert();\n   }\n\n   function placeBet(uint8 locationId, bool over, int8 temperature, uint256 endTime, uint8 odds) external payable {\n      require(msg.value > 0, 'No bet amount sent');\n      require(endTime > now, 'End time must be in the future');\n      uint256 id;\n      if (over == true) {\n         id = bets.push(Bet(false, false, msg.sender, address(0), endTime, msg.value, msg.value * odds - msg.value, locationId, temperature));\n      } else {\n         id = bets.push(Bet(false, false, address(0), msg.sender, endTime, msg.value * odds - msg.value, msg.value, locationId, temperature));\n      }\n      emit NewBet(msg.sender, id);\n   }\n\n   function acceptBet(uint256 betId) external payable untakenBet(betId) {\n      Bet storage bet = bets[betId];\n      if (bet.overAddress == address(0)) {\n         require(msg.value >= bet.overAmount);\n         bet.overAddress = msg.sender;\n      } else {\n         require(msg.value >= bet.underAmount);\n         bet.underAddress = msg.sender;\n      }\n      bet.taken = true;\n      emit BetAccepted(msg.sender, betId);\n   }\n\n   function cancelBet(uint256 betId) external payable untakenBet(betId) returns(uint256) {\n      require(bets[betId].overAddress == msg.sender || bets[betId].underAddress == msg.sender);\n      Bet storage bet = bets[betId];\n      if (bet.overAddress == msg.sender) {\n              msg.sender.transfer(bet.overAmount);\n          } else {\n              msg.sender.transfer(bet.underAmount);\n          }\n      bet.settled = true;\n      emit BetCancelled(msg.sender, betId);\n   }\n\n   function payoutBet(uint256 betId) external payable endedBet(betId) {\n      require(bets[betId].overAddress == msg.sender || bets[betId].underAddress == msg.sender);\n      Bet storage bet = bets[betId];\n      if (!bet.taken) {\n          uint256 amount;\n          if (bet.overAddress == msg.sender) {\n              amount = bet.overAmount;\n          } else {\n              amount = bet.underAmount;\n          }\n          bet.settled = true;\n          msg.sender.transfer(amount);\n          emit BetPayout(amount, betId);\n      } else {\n         require(timeToTempFetched[bet.endTime], 'Temperature data not yet confirmed');\n          int temperature = timeToTemp[bet.endTime];\n      if (temperature > bet.temperature) {\n         bet.overAddress.transfer(bet.underAmount + bet.overAmount);\n      } else if (temperature < bet.temperature) {\n         bet.underAddress.transfer(bet.overAmount + bet.underAmount);\n      } else {\n         bet.overAddress.transfer(bet.overAmount);\n         bet.underAddress.transfer(bet.underAmount);\n      }\n      bet.settled = true;\n      emit BetPayout(bet.overAmount + bet.underAmount, betId);\n      }\n   }\n\n   // Creates a Chainlink request with the uint256 multiplier job\n  function requestTemperature(address _oracle, bytes32 _jobId, uint256 _payment, uint8 locationId)\n    public\n  {\n     require(now > currentEndTime, 'Betting period has not ended yet');\n    // newRequest takes a JobID, a callback address, and callback function as input\n    Chainlink.Request memory req = buildChainlinkRequest(_jobId, this, this.fulfill.selector);\n    // Adds a URL with the key \"get\" to the request parameters\n    req.add(\"get\", string(abi.encodePacked(\"https://api.darksky.net/forecast/a7af029cf133f569356fafbb04c2c438/\", coords[locationId] , \",\", currentEndTime)));\n    // Uses input param (dot-delimited string) as the \"path\" in the request parameters\n    req.add(\"path\", \"current.temperature\");\n    // Adds an integer with the key \"times\" to the request parameters\n    //req.addInt(\"times\", 100);\n    // Sends the request with the amount of payment specified to the oracle\n    sendChainlinkRequestTo(_oracle, req, _payment);\n  }\n\n  // fulfill receives a uint256 data type\n  function fulfill(bytes32 _requestId, int256 _temperature)\n    public\n    // Use recordChainlinkFulfillment to ensure only the requesting oracle can fulfill\n    recordChainlinkFulfillment(_requestId)\n  {\n    timeToTemp[currentEndTime] = int8(_temperature);\n    timeToTempFetched[currentEndTime] = true;\n    currentEndTime += 3 days;\n  }\n\n  // withdrawLink allows the owner to withdraw any extra LINK on the contract\n  function withdrawLink()\n    public\n    onlyOwner\n  {\n    LinkTokenInterface link = LinkTokenInterface(chainlinkTokenAddress());\n    require(link.transfer(msg.sender, link.balanceOf(address(this))), \"Unable to transfer\");\n  }\n}\n",
  "sourcePath": "/home/christian/ethWaterloo/weatherbet/contracts/WeatherBets.sol",
  "compiler": {
    "name": "solc",
    "version": "0.4.24+commit.e67f0147.Emscripten.clang"
  },
  "schemaVersion": "3.0.16",
  "updatedAt": "2019-11-10T05:51:57.671Z",
  "devdoc": {
    "methods": {}
  },
  "userdoc": {
    "methods": {}
  }
}